{
  "contractName": "Defarmer",
  "abi": [
    {
      "inputs": [],
      "stateMutability": "nonpayable",
      "type": "constructor"
    },
    {
      "inputs": [
        {
          "internalType": "address",
          "name": "_owner",
          "type": "address"
        }
      ],
      "name": "balanceOf",
      "outputs": [
        {
          "components": [
            {
              "internalType": "string",
              "name": "product_name",
              "type": "string"
            },
            {
              "internalType": "uint256",
              "name": "product_quantity",
              "type": "uint256"
            },
            {
              "internalType": "uint256",
              "name": "price",
              "type": "uint256"
            },
            {
              "internalType": "string",
              "name": "_dateOfPlant",
              "type": "string"
            },
            {
              "internalType": "string",
              "name": "_harvestDate",
              "type": "string"
            },
            {
              "internalType": "address",
              "name": "_owner",
              "type": "address"
            },
            {
              "internalType": "uint256",
              "name": "count",
              "type": "uint256"
            },
            {
              "internalType": "string",
              "name": "imageUrl",
              "type": "string"
            }
          ],
          "internalType": "struct ERC721.Products[]",
          "name": "",
          "type": "tuple[]"
        }
      ],
      "stateMutability": "view",
      "type": "function",
      "constant": true
    },
    {
      "inputs": [
        {
          "internalType": "address",
          "name": "",
          "type": "address"
        }
      ],
      "name": "isMember",
      "outputs": [
        {
          "internalType": "bool",
          "name": "",
          "type": "bool"
        }
      ],
      "stateMutability": "view",
      "type": "function",
      "constant": true
    },
    {
      "inputs": [
        {
          "internalType": "address",
          "name": "_owner",
          "type": "address"
        },
        {
          "internalType": "string",
          "name": "product_name",
          "type": "string"
        },
        {
          "internalType": "uint256",
          "name": "product_quantity",
          "type": "uint256"
        },
        {
          "internalType": "uint256",
          "name": "price",
          "type": "uint256"
        },
        {
          "internalType": "string",
          "name": "_dateOfPlant",
          "type": "string"
        },
        {
          "internalType": "string",
          "name": "_harvestDate",
          "type": "string"
        },
        {
          "internalType": "string",
          "name": "imageUrl",
          "type": "string"
        }
      ],
      "name": "mint",
      "outputs": [],
      "stateMutability": "nonpayable",
      "type": "function"
    },
    {
      "inputs": [
        {
          "internalType": "uint256",
          "name": "",
          "type": "uint256"
        }
      ],
      "name": "product",
      "outputs": [
        {
          "internalType": "string",
          "name": "product_name",
          "type": "string"
        },
        {
          "internalType": "uint256",
          "name": "product_quantity",
          "type": "uint256"
        },
        {
          "internalType": "uint256",
          "name": "price",
          "type": "uint256"
        },
        {
          "internalType": "string",
          "name": "_dateOfPlant",
          "type": "string"
        },
        {
          "internalType": "string",
          "name": "_harvestDate",
          "type": "string"
        },
        {
          "internalType": "address",
          "name": "_owner",
          "type": "address"
        },
        {
          "internalType": "uint256",
          "name": "count",
          "type": "uint256"
        },
        {
          "internalType": "string",
          "name": "imageUrl",
          "type": "string"
        }
      ],
      "stateMutability": "view",
      "type": "function",
      "constant": true
    },
    {
      "inputs": [
        {
          "internalType": "uint256",
          "name": "_index",
          "type": "uint256"
        }
      ],
      "name": "tokenByIndex",
      "outputs": [
        {
          "components": [
            {
              "internalType": "string",
              "name": "product_name",
              "type": "string"
            },
            {
              "internalType": "uint256",
              "name": "product_quantity",
              "type": "uint256"
            },
            {
              "internalType": "uint256",
              "name": "price",
              "type": "uint256"
            },
            {
              "internalType": "string",
              "name": "_dateOfPlant",
              "type": "string"
            },
            {
              "internalType": "string",
              "name": "_harvestDate",
              "type": "string"
            },
            {
              "internalType": "address",
              "name": "_owner",
              "type": "address"
            },
            {
              "internalType": "uint256",
              "name": "count",
              "type": "uint256"
            },
            {
              "internalType": "string",
              "name": "imageUrl",
              "type": "string"
            }
          ],
          "internalType": "struct ERC721.Products",
          "name": "",
          "type": "tuple"
        }
      ],
      "stateMutability": "view",
      "type": "function",
      "constant": true
    },
    {
      "inputs": [
        {
          "internalType": "address",
          "name": "_owner",
          "type": "address"
        },
        {
          "internalType": "uint256",
          "name": "_index",
          "type": "uint256"
        }
      ],
      "name": "tokenOfOwnerByIndex",
      "outputs": [
        {
          "components": [
            {
              "internalType": "string",
              "name": "product_name",
              "type": "string"
            },
            {
              "internalType": "uint256",
              "name": "product_quantity",
              "type": "uint256"
            },
            {
              "internalType": "uint256",
              "name": "price",
              "type": "uint256"
            },
            {
              "internalType": "string",
              "name": "_dateOfPlant",
              "type": "string"
            },
            {
              "internalType": "string",
              "name": "_harvestDate",
              "type": "string"
            },
            {
              "internalType": "address",
              "name": "_owner",
              "type": "address"
            },
            {
              "internalType": "uint256",
              "name": "count",
              "type": "uint256"
            },
            {
              "internalType": "string",
              "name": "imageUrl",
              "type": "string"
            }
          ],
          "internalType": "struct ERC721.Products",
          "name": "",
          "type": "tuple"
        }
      ],
      "stateMutability": "view",
      "type": "function",
      "constant": true
    },
    {
      "inputs": [],
      "name": "totalCommodity",
      "outputs": [
        {
          "components": [
            {
              "internalType": "string",
              "name": "product_name",
              "type": "string"
            },
            {
              "internalType": "uint256",
              "name": "product_quantity",
              "type": "uint256"
            },
            {
              "internalType": "uint256",
              "name": "price",
              "type": "uint256"
            },
            {
              "internalType": "string",
              "name": "_dateOfPlant",
              "type": "string"
            },
            {
              "internalType": "string",
              "name": "_harvestDate",
              "type": "string"
            },
            {
              "internalType": "address",
              "name": "_owner",
              "type": "address"
            },
            {
              "internalType": "uint256",
              "name": "count",
              "type": "uint256"
            },
            {
              "internalType": "string",
              "name": "imageUrl",
              "type": "string"
            }
          ],
          "internalType": "struct ERC721.Products[]",
          "name": "",
          "type": "tuple[]"
        }
      ],
      "stateMutability": "view",
      "type": "function",
      "constant": true
    },
    {
      "inputs": [],
      "name": "totalSupply",
      "outputs": [
        {
          "internalType": "uint256",
          "name": "",
          "type": "uint256"
        }
      ],
      "stateMutability": "view",
      "type": "function",
      "constant": true
    },
    {
      "inputs": [
        {
          "internalType": "address",
          "name": "_from",
          "type": "address"
        },
        {
          "internalType": "address payable",
          "name": "_to",
          "type": "address"
        },
        {
          "internalType": "uint256",
          "name": "_index",
          "type": "uint256"
        }
      ],
      "name": "transferFrom",
      "outputs": [
        {
          "internalType": "bool",
          "name": "",
          "type": "bool"
        }
      ],
      "stateMutability": "payable",
      "type": "function",
      "payable": true
    },
    {
      "inputs": [
        {
          "internalType": "address",
          "name": "",
          "type": "address"
        }
      ],
      "name": "userSuccessFullTrades",
      "outputs": [
        {
          "internalType": "uint256",
          "name": "",
          "type": "uint256"
        }
      ],
      "stateMutability": "view",
      "type": "function",
      "constant": true
    }
  ],
  "bytecode": "0x608060405234801561001057600080fd5b5033600460006101000a81548173ffffffffffffffffffffffffffffffffffffffff021916908373ffffffffffffffffffffffffffffffffffffffff160217905550613336806100616000396000f3fe6080604052600436106100915760003560e01c8063562aa3a511610059578063562aa3a51461019457806370a08231146101d1578063780bd3f11461020e578063a00fea1f14610252578063a230c5241461027d57610091565b806318160ddd1461009657806323b872dd146100c15780632f745c59146100f15780634f6ccce71461012e5780634f9f07f21461016b575b600080fd5b3480156100a257600080fd5b506100ab6102ba565b6040516100b89190612543565b60405180910390f35b6100db60048036038101906100d6919061263a565b6102c6565b6040516100e891906126a8565b60405180910390f35b3480156100fd57600080fd5b50610118600480360381019061011391906126c3565b6104c3565b604051610125919061287f565b60405180910390f35b34801561013a57600080fd5b50610155600480360381019061015091906128a1565b6107fa565b604051610162919061287f565b60405180910390f35b34801561017757600080fd5b50610192600480360381019061018d9190612a63565b610af3565b005b3480156101a057600080fd5b506101bb60048036038101906101b69190612b82565b610d42565b6040516101c89190612543565b60405180910390f35b3480156101dd57600080fd5b506101f860048036038101906101f39190612b82565b610d5a565b6040516102059190612d36565b60405180910390f35b34801561021a57600080fd5b50610235600480360381019061023091906128a1565b6110f5565b604051610249989796959493929190612db1565b60405180910390f35b34801561025e57600080fd5b5061026761138d565b6040516102749190612d36565b60405180910390f35b34801561028957600080fd5b506102a4600480360381019061029f9190612b82565b6116a9565b6040516102b191906126a8565b60405180910390f35b60008080549050905090565b60008073ffffffffffffffffffffffffffffffffffffffff168473ffffffffffffffffffffffffffffffffffffffff161415610337576040517f08c379a000000000000000000000000000000000000000000000000000000000815260040161032e90612e97565b60405180910390fd5b600073ffffffffffffffffffffffffffffffffffffffff168373ffffffffffffffffffffffffffffffffffffffff1614156103a7576040517f08c379a000000000000000000000000000000000000000000000000000000000815260040161039e90612f03565b60405180910390fd5b8373ffffffffffffffffffffffffffffffffffffffff168373ffffffffffffffffffffffffffffffffffffffff161415610416576040517f08c379a000000000000000000000000000000000000000000000000000000000815260040161040d90612f6f565b60405180910390fd5b60011515600260008673ffffffffffffffffffffffffffffffffffffffff1673ffffffffffffffffffffffffffffffffffffffff16815260200190815260200160002060009054906101000a900460ff161515146104a9576040517f08c379a00000000000000000000000000000000000000000000000000000000081526004016104a090612fdb565b60405180910390fd5b60006104b68585856116c9565b9050809150509392505050565b6104cb61235f565b600160008473ffffffffffffffffffffffffffffffffffffffff1673ffffffffffffffffffffffffffffffffffffffff168152602001908152602001600020828154811061051c5761051b612ffb565b5b90600052602060002090600802016040518061010001604052908160008201805461054690613059565b80601f016020809104026020016040519081016040528092919081815260200182805461057290613059565b80156105bf5780601f10610594576101008083540402835291602001916105bf565b820191906000526020600020905b8154815290600101906020018083116105a257829003601f168201915b5050505050815260200160018201548152602001600282015481526020016003820180546105ec90613059565b80601f016020809104026020016040519081016040528092919081815260200182805461061890613059565b80156106655780601f1061063a57610100808354040283529160200191610665565b820191906000526020600020905b81548152906001019060200180831161064857829003601f168201915b5050505050815260200160048201805461067e90613059565b80601f01602080910402602001604051908101604052809291908181526020018280546106aa90613059565b80156106f75780601f106106cc576101008083540402835291602001916106f7565b820191906000526020600020905b8154815290600101906020018083116106da57829003601f168201915b505050505081526020016005820160009054906101000a900473ffffffffffffffffffffffffffffffffffffffff1673ffffffffffffffffffffffffffffffffffffffff1673ffffffffffffffffffffffffffffffffffffffff1681526020016006820154815260200160078201805461077090613059565b80601f016020809104026020016040519081016040528092919081815260200182805461079c90613059565b80156107e95780601f106107be576101008083540402835291602001916107e9565b820191906000526020600020905b8154815290600101906020018083116107cc57829003601f168201915b505050505081525050905092915050565b61080261235f565b6000828154811061081657610815612ffb565b5b90600052602060002090600802016040518061010001604052908160008201805461084090613059565b80601f016020809104026020016040519081016040528092919081815260200182805461086c90613059565b80156108b95780601f1061088e576101008083540402835291602001916108b9565b820191906000526020600020905b81548152906001019060200180831161089c57829003601f168201915b5050505050815260200160018201548152602001600282015481526020016003820180546108e690613059565b80601f016020809104026020016040519081016040528092919081815260200182805461091290613059565b801561095f5780601f106109345761010080835404028352916020019161095f565b820191906000526020600020905b81548152906001019060200180831161094257829003601f168201915b5050505050815260200160048201805461097890613059565b80601f01602080910402602001604051908101604052809291908181526020018280546109a490613059565b80156109f15780601f106109c6576101008083540402835291602001916109f1565b820191906000526020600020905b8154815290600101906020018083116109d457829003601f168201915b505050505081526020016005820160009054906101000a900473ffffffffffffffffffffffffffffffffffffffff1673ffffffffffffffffffffffffffffffffffffffff1673ffffffffffffffffffffffffffffffffffffffff16815260200160068201548152602001600782018054610a6a90613059565b80601f0160208091040260200160405190810160405280929190818152602001828054610a9690613059565b8015610ae35780601f10610ab857610100808354040283529160200191610ae3565b820191906000526020600020905b815481529060010190602001808311610ac657829003601f168201915b5050505050815250509050919050565b60006040518061010001604052808b81526020018a815260200189815260200188888080601f016020809104026020016040519081016040528093929190818152602001838380828437600081840152601f19601f82011690508083019250505050505050815260200186868080601f016020809104026020016040519081016040528093929190818152602001838380828437600081840152601f19601f8201169050808301925050505050505081526020018c73ffffffffffffffffffffffffffffffffffffffff1681526020016001600080549050610bd591906130ba565b815260200184848080601f016020809104026020016040519081016040528093929190818152602001838380828437600081840152601f19601f82011690508083019250505050505050815250905060008190806001815401808255809150506001900390600052602060002090600802016000909190919091506000820151816000019080519060200190610c6c9291906123ba565b5060208201518160010155604082015181600201556060820151816003019080519060200190610c9d9291906123ba565b506080820151816004019080519060200190610cba9291906123ba565b5060a08201518160050160006101000a81548173ffffffffffffffffffffffffffffffffffffffff021916908373ffffffffffffffffffffffffffffffffffffffff16021790555060c0820151816006015560e0820151816007019080519060200190610d289291906123ba565b505050610d358b82611d0e565b5050505050505050505050565b60036020528060005260406000206000915090505481565b6060600073ffffffffffffffffffffffffffffffffffffffff168273ffffffffffffffffffffffffffffffffffffffff161415610d9657600080fd5b6000600160008473ffffffffffffffffffffffffffffffffffffffff1673ffffffffffffffffffffffffffffffffffffffff168152602001908152602001600020905080805480602002602001604051908101604052809291908181526020016000905b828210156110e9578382906000526020600020906008020160405180610100016040529081600082018054610e2e90613059565b80601f0160208091040260200160405190810160405280929190818152602001828054610e5a90613059565b8015610ea75780601f10610e7c57610100808354040283529160200191610ea7565b820191906000526020600020905b815481529060010190602001808311610e8a57829003601f168201915b505050505081526020016001820154815260200160028201548152602001600382018054610ed490613059565b80601f0160208091040260200160405190810160405280929190818152602001828054610f0090613059565b8015610f4d5780601f10610f2257610100808354040283529160200191610f4d565b820191906000526020600020905b815481529060010190602001808311610f3057829003601f168201915b50505050508152602001600482018054610f6690613059565b80601f0160208091040260200160405190810160405280929190818152602001828054610f9290613059565b8015610fdf5780601f10610fb457610100808354040283529160200191610fdf565b820191906000526020600020905b815481529060010190602001808311610fc257829003601f168201915b505050505081526020016005820160009054906101000a900473ffffffffffffffffffffffffffffffffffffffff1673ffffffffffffffffffffffffffffffffffffffff1673ffffffffffffffffffffffffffffffffffffffff1681526020016006820154815260200160078201805461105890613059565b80601f016020809104026020016040519081016040528092919081815260200182805461108490613059565b80156110d15780601f106110a6576101008083540402835291602001916110d1565b820191906000526020600020905b8154815290600101906020018083116110b457829003601f168201915b50505050508152505081526020019060010190610dfa565b50505050915050919050565b6000818154811061110557600080fd5b906000526020600020906008020160009150905080600001805461112890613059565b80601f016020809104026020016040519081016040528092919081815260200182805461115490613059565b80156111a15780601f10611176576101008083540402835291602001916111a1565b820191906000526020600020905b81548152906001019060200180831161118457829003601f168201915b5050505050908060010154908060020154908060030180546111c290613059565b80601f01602080910402602001604051908101604052809291908181526020018280546111ee90613059565b801561123b5780601f106112105761010080835404028352916020019161123b565b820191906000526020600020905b81548152906001019060200180831161121e57829003601f168201915b50505050509080600401805461125090613059565b80601f016020809104026020016040519081016040528092919081815260200182805461127c90613059565b80156112c95780601f1061129e576101008083540402835291602001916112c9565b820191906000526020600020905b8154815290600101906020018083116112ac57829003601f168201915b5050505050908060050160009054906101000a900473ffffffffffffffffffffffffffffffffffffffff169080600601549080600701805461130a90613059565b80601f016020809104026020016040519081016040528092919081815260200182805461133690613059565b80156113835780601f1061135857610100808354040283529160200191611383565b820191906000526020600020905b81548152906001019060200180831161136657829003601f168201915b5050505050905088565b60606000805480602002602001604051908101604052809291908181526020016000905b828210156116a05783829060005260206000209060080201604051806101000160405290816000820180546113e590613059565b80601f016020809104026020016040519081016040528092919081815260200182805461141190613059565b801561145e5780601f106114335761010080835404028352916020019161145e565b820191906000526020600020905b81548152906001019060200180831161144157829003601f168201915b50505050508152602001600182015481526020016002820154815260200160038201805461148b90613059565b80601f01602080910402602001604051908101604052809291908181526020018280546114b790613059565b80156115045780601f106114d957610100808354040283529160200191611504565b820191906000526020600020905b8154815290600101906020018083116114e757829003601f168201915b5050505050815260200160048201805461151d90613059565b80601f016020809104026020016040519081016040528092919081815260200182805461154990613059565b80156115965780601f1061156b57610100808354040283529160200191611596565b820191906000526020600020905b81548152906001019060200180831161157957829003601f168201915b505050505081526020016005820160009054906101000a900473ffffffffffffffffffffffffffffffffffffffff1673ffffffffffffffffffffffffffffffffffffffff1673ffffffffffffffffffffffffffffffffffffffff1681526020016006820154815260200160078201805461160f90613059565b80601f016020809104026020016040519081016040528092919081815260200182805461163b90613059565b80156116885780601f1061165d57610100808354040283529160200191611688565b820191906000526020600020905b81548152906001019060200180831161166b57829003601f168201915b505050505081525050815260200190600101906113b1565b50505050905090565b60026020528060005260406000206000915054906101000a900460ff1681565b600080600083815481106116e0576116df612ffb565b5b90600052602060002090600802016040518061010001604052908160008201805461170a90613059565b80601f016020809104026020016040519081016040528092919081815260200182805461173690613059565b80156117835780601f1061175857610100808354040283529160200191611783565b820191906000526020600020905b81548152906001019060200180831161176657829003601f168201915b5050505050815260200160018201548152602001600282015481526020016003820180546117b090613059565b80601f01602080910402602001604051908101604052809291908181526020018280546117dc90613059565b80156118295780601f106117fe57610100808354040283529160200191611829565b820191906000526020600020905b81548152906001019060200180831161180c57829003601f168201915b5050505050815260200160048201805461184290613059565b80601f016020809104026020016040519081016040528092919081815260200182805461186e90613059565b80156118bb5780601f10611890576101008083540402835291602001916118bb565b820191906000526020600020905b81548152906001019060200180831161189e57829003601f168201915b505050505081526020016005820160009054906101000a900473ffffffffffffffffffffffffffffffffffffffff1673ffffffffffffffffffffffffffffffffffffffff1673ffffffffffffffffffffffffffffffffffffffff1681526020016006820154815260200160078201805461193490613059565b80601f016020809104026020016040519081016040528092919081815260200182805461196090613059565b80156119ad5780601f10611982576101008083540402835291602001916119ad565b820191906000526020600020905b81548152906001019060200180831161199057829003601f168201915b5050505050815250509050600081604001511415611a00576040517f08c379a00000000000000000000000000000000000000000000000000000000081526004016119f79061315c565b60405180910390fd5b600081602001511415611a48576040517f08c379a0000000000000000000000000000000000000000000000000000000008152600401611a3f906131c8565b60405180910390fd5b8473ffffffffffffffffffffffffffffffffffffffff168160a0015173ffffffffffffffffffffffffffffffffffffffff1614611aba576040517f08c379a0000000000000000000000000000000000000000000000000000000008152600401611ab190613234565b60405180910390fd5b60008160c001519050611acd8682611eae565b848260a0019073ffffffffffffffffffffffffffffffffffffffff16908173ffffffffffffffffffffffffffffffffffffffff1681525050611b0e84612127565b6001600260008773ffffffffffffffffffffffffffffffffffffffff1673ffffffffffffffffffffffffffffffffffffffff16815260200190815260200160002060006101000a81548160ff0219169083151502179055506001600360008873ffffffffffffffffffffffffffffffffffffffff1673ffffffffffffffffffffffffffffffffffffffff1681526020019081526020016000206000828254611bb691906130ba565b92505081905550600160008673ffffffffffffffffffffffffffffffffffffffff1673ffffffffffffffffffffffffffffffffffffffff1681526020019081526020016000208290806001815401808255809150506001900390600052602060002090600802016000909190919091506000820151816000019080519060200190611c429291906123ba565b5060208201518160010155604082015181600201556060820151816003019080519060200190611c739291906123ba565b506080820151816004019080519060200190611c909291906123ba565b5060a08201518160050160006101000a81548173ffffffffffffffffffffffffffffffffffffffff021916908373ffffffffffffffffffffffffffffffffffffffff16021790555060c0820151816006015560e0820151816007019080519060200190611cfe9291906123ba565b5050506001925050509392505050565b600160008373ffffffffffffffffffffffffffffffffffffffff1673ffffffffffffffffffffffffffffffffffffffff1681526020019081526020016000208190806001815401808255809150506001900390600052602060002090600802016000909190919091506000820151816000019080519060200190611d939291906123ba565b5060208201518160010155604082015181600201556060820151816003019080519060200190611dc49291906123ba565b506080820151816004019080519060200190611de19291906123ba565b5060a08201518160050160006101000a81548173ffffffffffffffffffffffffffffffffffffffff021916908373ffffffffffffffffffffffffffffffffffffffff16021790555060c0820151816006015560e0820151816007019080519060200190611e4f9291906123ba565b5050506001600260008473ffffffffffffffffffffffffffffffffffffffff1673ffffffffffffffffffffffffffffffffffffffff16815260200190815260200160002060006101000a81548160ff0219169083151502179055505050565b6000600160008473ffffffffffffffffffffffffffffffffffffffff1673ffffffffffffffffffffffffffffffffffffffff168152602001908152602001600020905060008290505b60018280549050611f089190613254565b8110156120785781600182611f1d91906130ba565b81548110611f2e57611f2d612ffb565b5b9060005260206000209060080201828281548110611f4f57611f4e612ffb565b5b90600052602060002090600802016000820181600001908054611f7190613059565b611f7c929190612440565b5060018201548160010155600282015481600201556003820181600301908054611fa590613059565b611fb0929190612440565b506004820181600401908054611fc590613059565b611fd0929190612440565b506005820160009054906101000a900473ffffffffffffffffffffffffffffffffffffffff168160050160006101000a81548173ffffffffffffffffffffffffffffffffffffffff021916908373ffffffffffffffffffffffffffffffffffffffff16021790555060068201548160060155600782018160070190805461205690613059565b612061929190612440565b50905050808061207090613288565b915050611ef7565b508080548061208a576120896132d1565b5b6001900381819060005260206000209060080201600080820160006120af91906124cd565b600182016000905560028201600090556003820160006120cf91906124cd565b6004820160006120df91906124cd565b6005820160006101000a81549073ffffffffffffffffffffffffffffffffffffffff0219169055600682016000905560078201600061211e91906124cd565b50509055505050565b60008190505b600160008054905061213f9190613254565b8110156122b157600060018261215591906130ba565b8154811061216657612165612ffb565b5b90600052602060002090600802016000828154811061218857612187612ffb565b5b906000526020600020906008020160008201816000019080546121aa90613059565b6121b5929190612440565b50600182015481600101556002820154816002015560038201816003019080546121de90613059565b6121e9929190612440565b5060048201816004019080546121fe90613059565b612209929190612440565b506005820160009054906101000a900473ffffffffffffffffffffffffffffffffffffffff168160050160006101000a81548173ffffffffffffffffffffffffffffffffffffffff021916908373ffffffffffffffffffffffffffffffffffffffff16021790555060068201548160060155600782018160070190805461228f90613059565b61229a929190612440565b5090505080806122a990613288565b91505061212d565b5060008054806122c4576122c36132d1565b5b6001900381819060005260206000209060080201600080820160006122e991906124cd565b6001820160009055600282016000905560038201600061230991906124cd565b60048201600061231991906124cd565b6005820160006101000a81549073ffffffffffffffffffffffffffffffffffffffff0219169055600682016000905560078201600061235891906124cd565b5050905550565b6040518061010001604052806060815260200160008152602001600081526020016060815260200160608152602001600073ffffffffffffffffffffffffffffffffffffffff16815260200160008152602001606081525090565b8280546123c690613059565b90600052602060002090601f0160209004810192826123e8576000855561242f565b82601f1061240157805160ff191683800117855561242f565b8280016001018555821561242f579182015b8281111561242e578251825591602001919060010190612413565b5b50905061243c919061250d565b5090565b82805461244c90613059565b90600052602060002090601f01602090048101928261246e57600085556124bc565b82601f1061247f57805485556124bc565b828001600101855582156124bc57600052602060002091601f016020900482015b828111156124bb5782548255916001019190600101906124a0565b5b5090506124c9919061250d565b5090565b5080546124d990613059565b6000825580601f106124eb575061250a565b601f016020900490600052602060002090810190612509919061250d565b5b50565b5b8082111561252657600081600090555060010161250e565b5090565b6000819050919050565b61253d8161252a565b82525050565b60006020820190506125586000830184612534565b92915050565b6000604051905090565b600080fd5b600080fd5b600073ffffffffffffffffffffffffffffffffffffffff82169050919050565b600061259d82612572565b9050919050565b6125ad81612592565b81146125b857600080fd5b50565b6000813590506125ca816125a4565b92915050565b60006125db82612572565b9050919050565b6125eb816125d0565b81146125f657600080fd5b50565b600081359050612608816125e2565b92915050565b6126178161252a565b811461262257600080fd5b50565b6000813590506126348161260e565b92915050565b60008060006060848603121561265357612652612568565b5b6000612661868287016125bb565b9350506020612672868287016125f9565b925050604061268386828701612625565b9150509250925092565b60008115159050919050565b6126a28161268d565b82525050565b60006020820190506126bd6000830184612699565b92915050565b600080604083850312156126da576126d9612568565b5b60006126e8858286016125bb565b92505060206126f985828601612625565b9150509250929050565b600081519050919050565b600082825260208201905092915050565b60005b8381101561273d578082015181840152602081019050612722565b8381111561274c576000848401525b50505050565b6000601f19601f8301169050919050565b600061276e82612703565b612778818561270e565b935061278881856020860161271f565b61279181612752565b840191505092915050565b6127a58161252a565b82525050565b6127b481612592565b82525050565b60006101008301600083015184820360008601526127d88282612763565b91505060208301516127ed602086018261279c565b506040830151612800604086018261279c565b50606083015184820360608601526128188282612763565b915050608083015184820360808601526128328282612763565b91505060a083015161284760a08601826127ab565b5060c083015161285a60c086018261279c565b5060e083015184820360e08601526128728282612763565b9150508091505092915050565b6000602082019050818103600083015261289981846127ba565b905092915050565b6000602082840312156128b7576128b6612568565b5b60006128c584828501612625565b91505092915050565b600080fd5b600080fd5b7f4e487b7100000000000000000000000000000000000000000000000000000000600052604160045260246000fd5b61291082612752565b810181811067ffffffffffffffff8211171561292f5761292e6128d8565b5b80604052505050565b600061294261255e565b905061294e8282612907565b919050565b600067ffffffffffffffff82111561296e5761296d6128d8565b5b61297782612752565b9050602081019050919050565b82818337600083830152505050565b60006129a66129a184612953565b612938565b9050828152602081018484840111156129c2576129c16128d3565b5b6129cd848285612984565b509392505050565b600082601f8301126129ea576129e96128ce565b5b81356129fa848260208601612993565b91505092915050565b600080fd5b600080fd5b60008083601f840112612a2357612a226128ce565b5b8235905067ffffffffffffffff811115612a4057612a3f612a03565b5b602083019150836001820283011115612a5c57612a5b612a08565b5b9250929050565b60008060008060008060008060008060e08b8d031215612a8657612a85612568565b5b6000612a948d828e016125bb565b9a505060208b013567ffffffffffffffff811115612ab557612ab461256d565b5b612ac18d828e016129d5565b9950506040612ad28d828e01612625565b9850506060612ae38d828e01612625565b97505060808b013567ffffffffffffffff811115612b0457612b0361256d565b5b612b108d828e01612a0d565b965096505060a08b013567ffffffffffffffff811115612b3357612b3261256d565b5b612b3f8d828e01612a0d565b945094505060c08b013567ffffffffffffffff811115612b6257612b6161256d565b5b612b6e8d828e01612a0d565b92509250509295989b9194979a5092959850565b600060208284031215612b9857612b97612568565b5b6000612ba6848285016125bb565b91505092915050565b600081519050919050565b600082825260208201905092915050565b6000819050602082019050919050565b6000610100830160008301518482036000860152612bf98282612763565b9150506020830151612c0e602086018261279c565b506040830151612c21604086018261279c565b5060608301518482036060860152612c398282612763565b91505060808301518482036080860152612c538282612763565b91505060a0830151612c6860a08601826127ab565b5060c0830151612c7b60c086018261279c565b5060e083015184820360e0860152612c938282612763565b9150508091505092915050565b6000612cac8383612bdb565b905092915050565b6000602082019050919050565b6000612ccc82612baf565b612cd68185612bba565b935083602082028501612ce885612bcb565b8060005b85811015612d245784840389528151612d058582612ca0565b9450612d1083612cb4565b925060208a01995050600181019050612cec565b50829750879550505050505092915050565b60006020820190508181036000830152612d508184612cc1565b905092915050565b600082825260208201905092915050565b6000612d7482612703565b612d7e8185612d58565b9350612d8e81856020860161271f565b612d9781612752565b840191505092915050565b612dab81612592565b82525050565b6000610100820190508181036000830152612dcc818b612d69565b9050612ddb602083018a612534565b612de86040830189612534565b8181036060830152612dfa8188612d69565b90508181036080830152612e0e8187612d69565b9050612e1d60a0830186612da2565b612e2a60c0830185612534565b81810360e0830152612e3c8184612d69565b90509998505050505050505050565b7f496e76616c696420616464726573730000000000000000000000000000000000600082015250565b6000612e81600f83612d58565b9150612e8c82612e4b565b602082019050919050565b60006020820190508181036000830152612eb081612e74565b9050919050565b7f20496e76616c6964206164647265737300000000000000000000000000000000600082015250565b6000612eed601083612d58565b9150612ef882612eb7565b602082019050919050565b60006020820190508181036000830152612f1c81612ee0565b9050919050565b7f796f752063616e6e6f742073656e6420746f20796f757273656c660000000000600082015250565b6000612f59601b83612d58565b9150612f6482612f23565b602082019050919050565b60006020820190508181036000830152612f8881612f4c565b9050919050565b7f6e6f742061206d656d6265720000000000000000000000000000000000000000600082015250565b6000612fc5600c83612d58565b9150612fd082612f8f565b602082019050919050565b60006020820190508181036000830152612ff481612fb8565b9050919050565b7f4e487b7100000000000000000000000000000000000000000000000000000000600052603260045260246000fd5b7f4e487b7100000000000000000000000000000000000000000000000000000000600052602260045260246000fd5b6000600282049050600182168061307157607f821691505b602082108114156130855761308461302a565b5b50919050565b7f4e487b7100000000000000000000000000000000000000000000000000000000600052601160045260246000fd5b60006130c58261252a565b91506130d08361252a565b9250827fffffffffffffffffffffffffffffffffffffffffffffffffffffffffffffffff038211156131055761310461308b565b5b828201905092915050565b7f6e6f2070726f6475637420666f756e6400000000000000000000000000000000600082015250565b6000613146601083612d58565b915061315182613110565b602082019050919050565b6000602082019050818103600083015261317581613139565b9050919050565b7f70726f64756374207175616e74697479206e6f74207370656369666965640000600082015250565b60006131b2601e83612d58565b91506131bd8261317c565b602082019050919050565b600060208201905081810360008301526131e1816131a5565b9050919050565b7f20796f7520646f6e74206f776e20746869732070726f64756374000000000000600082015250565b600061321e601a83612d58565b9150613229826131e8565b602082019050919050565b6000602082019050818103600083015261324d81613211565b9050919050565b600061325f8261252a565b915061326a8361252a565b92508282101561327d5761327c61308b565b5b828203905092915050565b60006132938261252a565b91507fffffffffffffffffffffffffffffffffffffffffffffffffffffffffffffffff8214156132c6576132c561308b565b5b600182019050919050565b7f4e487b7100000000000000000000000000000000000000000000000000000000600052603160045260246000fdfea26469706673582212204db1f0bd28f94da1ee4619989eccab1d33d7b21ae09548f86b36b5262482f64d64736f6c634300080b0033",
  "immutableReferences": {},
  "source": "//SPDX-License-Identifier: MIT\r\npragma solidity ^0.8.0;\r\n\r\nimport './ERC721.sol';\r\n\r\ncontract Defarmer is ERC721{\r\n    \r\n    address private contract_owner;\r\n    address private buyer;\r\n    constructor(){\r\n        contract_owner = msg.sender;\r\n    }\r\n    \r\n    \r\n}",
  "sourcePath": "C:\\Users\\olive\\Documents\\VSCODE_PROJECTS\\Defarmer\\src\\contracts\\~AgriBlock.sol",
  "compiler": {
    "name": "solc",
    "version": "0.8.11+commit.d7f03943.Emscripten.clang"
  },
  "schemaVersion": "3.4.13",
  "updatedAt": "2023-04-30T19:36:02.808Z",
  "networkType": "ethereum",
  "devdoc": {
    "kind": "dev",
    "methods": {},
    "version": 1
  },
  "userdoc": {
    "kind": "user",
    "methods": {},
    "version": 1
  }
}