{
  "contractName": "Escrow",
  "abi": [
    {
      "inputs": [
        {
          "internalType": "address",
          "name": "_buyer",
          "type": "address"
        },
        {
          "internalType": "address payable",
          "name": "_seller",
          "type": "address"
        }
      ],
      "stateMutability": "nonpayable",
      "type": "constructor"
    },
    {
      "inputs": [],
      "name": "buyer",
      "outputs": [
        {
          "internalType": "address",
          "name": "",
          "type": "address"
        }
      ],
      "stateMutability": "view",
      "type": "function"
    },
    {
      "inputs": [],
      "name": "currState",
      "outputs": [
        {
          "internalType": "enum Escrow.State",
          "name": "",
          "type": "uint8"
        }
      ],
      "stateMutability": "view",
      "type": "function"
    },
    {
      "inputs": [],
      "name": "seller",
      "outputs": [
        {
          "internalType": "address payable",
          "name": "",
          "type": "address"
        }
      ],
      "stateMutability": "view",
      "type": "function"
    },
    {
      "inputs": [],
      "name": "buyProduct",
      "outputs": [],
      "stateMutability": "nonpayable",
      "type": "function"
    },
    {
      "inputs": [],
      "name": "deposit",
      "outputs": [],
      "stateMutability": "payable",
      "type": "function"
    },
    {
      "inputs": [],
      "name": "confirmDelivery",
      "outputs": [],
      "stateMutability": "nonpayable",
      "type": "function"
    }
  ],
  "bytecode": "0x608060405234801561001057600080fd5b506040516109553803806109558339818101604052810190610032919061015c565b81600060016101000a81548173ffffffffffffffffffffffffffffffffffffffff021916908373ffffffffffffffffffffffffffffffffffffffff16021790555080600160006101000a81548173ffffffffffffffffffffffffffffffffffffffff021916908373ffffffffffffffffffffffffffffffffffffffff160217905550505061019c565b600080fd5b600073ffffffffffffffffffffffffffffffffffffffff82169050919050565b60006100eb826100c0565b9050919050565b6100fb816100e0565b811461010657600080fd5b50565b600081519050610118816100f2565b92915050565b6000610129826100c0565b9050919050565b6101398161011e565b811461014457600080fd5b50565b60008151905061015681610130565b92915050565b60008060408385031215610173576101726100bb565b5b600061018185828601610109565b925050602061019285828601610147565b9150509250929050565b6107aa806101ab6000396000f3fe6080604052600436106100555760003560e01c806308551a531461005a5780635e10177b146100855780637150d8ae1461009c5780639ada9b7b146100c7578063afe01043146100de578063d0e30db014610109575b600080fd5b34801561006657600080fd5b5061006f610113565b60405161007c9190610536565b60405180910390f35b34801561009157600080fd5b5061009a610139565b005b3480156100a857600080fd5b506100b16102d2565b6040516100be9190610572565b60405180910390f35b3480156100d357600080fd5b506100dc6102f8565b005b3480156100ea57600080fd5b506100f36103b4565b6040516101009190610604565b60405180910390f35b6101116103c5565b005b600160009054906101000a900473ffffffffffffffffffffffffffffffffffffffff1681565b600060019054906101000a900473ffffffffffffffffffffffffffffffffffffffff1673ffffffffffffffffffffffffffffffffffffffff163373ffffffffffffffffffffffffffffffffffffffff16146101c9576040517f08c379a00000000000000000000000000000000000000000000000000000000081526004016101c09061067c565b60405180910390fd5b600160028111156101dd576101dc61058d565b5b60008054906101000a900460ff1660028111156101fd576101fc61058d565b5b1461023d576040517f08c379a0000000000000000000000000000000000000000000000000000000008152600401610234906106e8565b60405180910390fd5b600160009054906101000a900473ffffffffffffffffffffffffffffffffffffffff1673ffffffffffffffffffffffffffffffffffffffff166108fc479081150290604051600060405180830381858888f193505050501580156102a5573d6000803e3d6000fd5b5060026000806101000a81548160ff021916908360028111156102cb576102ca61058d565b5b0217905550565b600060019054906101000a900473ffffffffffffffffffffffffffffffffffffffff1681565b600060019054906101000a900473ffffffffffffffffffffffffffffffffffffffff1673ffffffffffffffffffffffffffffffffffffffff163373ffffffffffffffffffffffffffffffffffffffff1614610388576040517f08c379a000000000000000000000000000000000000000000000000000000000815260040161037f9061067c565b60405180910390fd5b60008060006101000a81548160ff021916908360028111156103ad576103ac61058d565b5b0217905550565b60008054906101000a900460ff1681565b600060019054906101000a900473ffffffffffffffffffffffffffffffffffffffff1673ffffffffffffffffffffffffffffffffffffffff163373ffffffffffffffffffffffffffffffffffffffff1614610455576040517f08c379a000000000000000000000000000000000000000000000000000000000815260040161044c9061067c565b60405180910390fd5b600060028111156104695761046861058d565b5b60008054906101000a900460ff1660028111156104895761048861058d565b5b146104c9576040517f08c379a00000000000000000000000000000000000000000000000000000000081526004016104c090610754565b60405180910390fd5b60016000806101000a81548160ff021916908360028111156104ee576104ed61058d565b5b0217905550565b600073ffffffffffffffffffffffffffffffffffffffff82169050919050565b6000610520826104f5565b9050919050565b61053081610515565b82525050565b600060208201905061054b6000830184610527565b92915050565b600061055c826104f5565b9050919050565b61056c81610551565b82525050565b60006020820190506105876000830184610563565b92915050565b7f4e487b7100000000000000000000000000000000000000000000000000000000600052602160045260246000fd5b600381106105cd576105cc61058d565b5b50565b60008190506105de826105bc565b919050565b60006105ee826105d0565b9050919050565b6105fe816105e3565b82525050565b600060208201905061061960008301846105f5565b92915050565b600082825260208201905092915050565b7f4f6e6c792062757965722063616e2063616c6c2074686973206d6574686f6400600082015250565b6000610666601f8361061f565b915061067182610630565b602082019050919050565b6000602082019050818103600083015261069581610659565b9050919050565b7f43616e6e6f7420636f6e6669726d2064656c6976657279000000000000000000600082015250565b60006106d260178361061f565b91506106dd8261069c565b602082019050919050565b60006020820190508181036000830152610701816106c5565b9050919050565b7f416c726561647920706169640000000000000000000000000000000000000000600082015250565b600061073e600c8361061f565b915061074982610708565b602082019050919050565b6000602082019050818103600083015261076d81610731565b905091905056fea26469706673582212200ac2991ea3e9abf7f8ab49081d8b00a50a35daaba83cda3630c73d5f97c785b364736f6c634300080b0033",
  "immutableReferences": {},
  "source": "// SPDX-License-Identifier: MIT\r\npragma solidity >=0.4.22 <0.9.0;\r\n\r\ncontract Escrow{\r\n    enum State { AWAITING_PAYMENT, AWAITING_DELIVERY, COMPLETE }\r\n    \r\n    State public currState;\r\n    \r\n    address public buyer;\r\n    address payable public seller;\r\n\r\n    modifier onlyBuyer() {\r\n        require(msg.sender == buyer, \"Only buyer can call this method\");\r\n        _;\r\n    }\r\n    constructor(address _buyer, address payable _seller) {\r\n        buyer = _buyer;\r\n        seller = _seller;\r\n    }\r\n    function buyProduct() public onlyBuyer{\r\n        currState = State.AWAITING_PAYMENT;\r\n        //send notification to seller that buyer wants to buy something\r\n    }\r\n    function deposit() onlyBuyer external payable {\r\n        require(currState == State.AWAITING_PAYMENT, \"Already paid\");\r\n        currState = State.AWAITING_DELIVERY;\r\n    }\r\n    function confirmDelivery() onlyBuyer external {\r\n        require(currState == State.AWAITING_DELIVERY, \"Cannot confirm delivery\");\r\n        seller.transfer(address(this).balance);\r\n        currState = State.COMPLETE;\r\n    }\r\n}",
  "sourcePath": "C:\\Users\\olive\\Documents\\VSCODE_PROJECTS\\Defarmer\\src\\contracts\\EscrowContract.sol",
  "compiler": {
    "name": "solc",
    "version": "0.8.11+commit.d7f03943.Emscripten.clang"
  },
  "schemaVersion": "3.4.13",
  "updatedAt": "2023-04-29T16:33:07.320Z",
  "devdoc": {
    "kind": "dev",
    "methods": {},
    "version": 1
  },
  "userdoc": {
    "kind": "user",
    "methods": {},
    "version": 1
  }
}